{
  "contractName": "Elections",
  "abi": [
    {
      "constant": true,
      "inputs": [
        {
          "name": "",
          "type": "address"
        }
      ],
      "name": "VoterList",
      "outputs": [
        {
          "name": "constituency",
          "type": "string"
        },
        {
          "name": "isRegistered",
          "type": "bool"
        },
        {
          "name": "voted",
          "type": "bool"
        }
      ],
      "payable": false,
      "stateMutability": "view",
      "type": "function",
      "signature": "0x0098a51a"
    },
    {
      "constant": true,
      "inputs": [
        {
          "name": "",
          "type": "address"
        }
      ],
      "name": "CandidateList",
      "outputs": [
        {
          "name": "name",
          "type": "string"
        },
        {
          "name": "constituency",
          "type": "string"
        },
        {
          "name": "politicalParty",
          "type": "string"
        },
        {
          "name": "voteCount",
          "type": "uint256"
        },
        {
          "name": "isRegistered",
          "type": "bool"
        },
        {
          "name": "candidateAddress",
          "type": "address"
        }
      ],
      "payable": false,
      "stateMutability": "view",
      "type": "function",
      "signature": "0x0a03fff1"
    },
    {
      "constant": true,
      "inputs": [],
      "name": "ElectionChairperson",
      "outputs": [
        {
          "name": "",
          "type": "address"
        }
      ],
      "payable": false,
      "stateMutability": "view",
      "type": "function",
      "signature": "0x3a97f669"
    },
    {
      "constant": true,
      "inputs": [
        {
          "name": "",
          "type": "uint256"
        }
      ],
      "name": "VoterAddressList",
      "outputs": [
        {
          "name": "",
          "type": "address"
        }
      ],
      "payable": false,
      "stateMutability": "view",
      "type": "function",
      "signature": "0x79784eeb"
    },
    {
      "constant": true,
      "inputs": [],
      "name": "State",
      "outputs": [
        {
          "name": "",
          "type": "uint8"
        }
      ],
      "payable": false,
      "stateMutability": "view",
      "type": "function",
      "signature": "0xf1b6dccd"
    },
    {
      "constant": true,
      "inputs": [
        {
          "name": "",
          "type": "uint256"
        }
      ],
      "name": "CandidateAddressList",
      "outputs": [
        {
          "name": "",
          "type": "address"
        }
      ],
      "payable": false,
      "stateMutability": "view",
      "type": "function",
      "signature": "0xf737bc0a"
    },
    {
      "inputs": [],
      "payable": false,
      "stateMutability": "nonpayable",
      "type": "constructor",
      "signature": "constructor"
    },
    {
      "anonymous": false,
      "inputs": [],
      "name": "VotingStarts",
      "type": "event",
      "signature": "0x2b1dc6350e3f2860a3375210062f7102aeb9c86eea93e2ea103489a0092027c3"
    },
    {
      "anonymous": false,
      "inputs": [],
      "name": "VotingEnds",
      "type": "event",
      "signature": "0xf9bbc368da798b232cf047dd7b172615dc07914724c2722bd2591564d77294a5"
    },
    {
      "anonymous": false,
      "inputs": [
        {
          "indexed": false,
          "name": "applicationName",
          "type": "string"
        },
        {
          "indexed": false,
          "name": "workflowName",
          "type": "string"
        },
        {
          "indexed": false,
          "name": "originatingAddress",
          "type": "address"
        }
      ],
      "name": "WorkbenchContractCreated",
      "type": "event",
      "signature": "0x5164ff06e10737dceb282871701b28082988339e79ba9d49c6c9b0e00312982b"
    },
    {
      "anonymous": false,
      "inputs": [
        {
          "indexed": false,
          "name": "applicationName",
          "type": "string"
        },
        {
          "indexed": false,
          "name": "workflowName",
          "type": "string"
        },
        {
          "indexed": false,
          "name": "action",
          "type": "string"
        },
        {
          "indexed": false,
          "name": "originatingAddress",
          "type": "address"
        }
      ],
      "name": "WorkbenchContractUpdated",
      "type": "event",
      "signature": "0xa13bd79f323c399d36191e886ded389c940ccd7e6dd744d1505943592fb2b433"
    },
    {
      "constant": true,
      "inputs": [],
      "name": "getCandidateList",
      "outputs": [
        {
          "components": [
            {
              "name": "name",
              "type": "string"
            },
            {
              "name": "constituency",
              "type": "string"
            },
            {
              "name": "politicalParty",
              "type": "string"
            },
            {
              "name": "voteCount",
              "type": "uint256"
            },
            {
              "name": "isRegistered",
              "type": "bool"
            },
            {
              "name": "candidateAddress",
              "type": "address"
            }
          ],
          "name": "candidates",
          "type": "tuple[]"
        }
      ],
      "payable": false,
      "stateMutability": "view",
      "type": "function",
      "signature": "0xfdbc4006"
    },
    {
      "constant": false,
      "inputs": [
        {
          "name": "_name",
          "type": "string"
        },
        {
          "name": "_constituency",
          "type": "string"
        },
        {
          "name": "_politicalParty",
          "type": "string"
        },
        {
          "name": "candidateAddress",
          "type": "address"
        }
      ],
      "name": "registerCandidate",
      "outputs": [],
      "payable": false,
      "stateMutability": "nonpayable",
      "type": "function",
      "signature": "0xe2e989b2"
    },
    {
      "constant": false,
      "inputs": [
        {
          "name": "_constituency",
          "type": "string"
        },
        {
          "name": "voterAddress",
          "type": "address"
        }
      ],
      "name": "registerVoter",
      "outputs": [],
      "payable": false,
      "stateMutability": "nonpayable",
      "type": "function",
      "signature": "0x4a075de2"
    },
    {
      "constant": false,
      "inputs": [
        {
          "name": "candidate",
          "type": "address"
        },
        {
          "name": "voter",
          "type": "address"
        },
        {
          "name": "otp",
          "type": "uint256"
        }
      ],
      "name": "voteForCandidate",
      "outputs": [],
      "payable": false,
      "stateMutability": "nonpayable",
      "type": "function",
      "signature": "0xd5e14fe2"
    },
    {
      "constant": false,
      "inputs": [
        {
          "name": "otp",
          "type": "uint256"
        },
        {
          "name": "voterAddress",
          "type": "address"
        }
      ],
      "name": "mapOTP",
      "outputs": [],
      "payable": false,
      "stateMutability": "nonpayable",
      "type": "function",
      "signature": "0xb2ab8ec6"
    }
  ],
  "bytecode": "0x60806040523480156200001157600080fd5b506040518060400160405280601181526020017f42616c6c6f744170706c69636174696f6e0000000000000000000000000000008152506040518060400160405280601181526020017f42616c6c6f744170706c69636174696f6e0000000000000000000000000000008152508160009080519060200190620000969291906200011e565b508060019080519060200190620000af9291906200011e565b50505033600260016101000a81548173ffffffffffffffffffffffffffffffffffffffff021916908373ffffffffffffffffffffffffffffffffffffffff1602179055506000600260006101000a81548160ff021916908360028111156200011357fe5b0217905550620001cd565b828054600181600116156101000203166002900490600052602060002090601f016020900481019282601f106200016157805160ff191683800117855562000192565b8280016001018555821562000192579182015b828111156200019157825182559160200191906001019062000174565b5b509050620001a19190620001a5565b5090565b620001ca91905b80821115620001c6576000816000905550600101620001ac565b5090565b90565b61215980620001dd6000396000f3fe608060405234801561001057600080fd5b50600436106100c5576000357c010000000000000000000000000000000000000000000000000000000090048063b2ab8ec61161008e578063b2ab8ec61461019b578063d5e14fe2146101b7578063e2e989b2146101d3578063f1b6dccd146101ef578063f737bc0a1461020d578063fdbc40061461023d576100c5565b806298a51a146100ca5780630a03fff1146100fc5780633a97f669146101315780634a075de21461014f57806379784eeb1461016b575b600080fd5b6100e460048036036100df9190810190611792565b61025b565b6040516100f393929190611e50565b60405180910390f35b61011660048036036101119190810190611792565b610337565b60405161012896959493929190611e8e565b60405180910390f35b610139610568565b6040516101469190611df8565b60405180910390f35b6101696004803603610164919081019061180a565b61058e565b005b6101856004803603610180919081019061191b565b610831565b6040516101929190611df8565b60405180910390f35b6101b560048036036101b09190810190611944565b61086d565b005b6101d160048036036101cc91908101906117bb565b610a29565b005b6101ed60048036036101e89190810190611862565b610e29565b005b6101f76111e9565b6040516102049190611e35565b60405180910390f35b6102276004803603610222919081019061191b565b6111fc565b6040516102349190611df8565b60405180910390f35b610245611238565b6040516102529190611e13565b60405180910390f35b6005602052806000526040600020600091509050806000018054600181600116156101000203166002900480601f0160208091040260200160405190810160405280929190818152602001828054600181600116156101000203166002900480156103075780601f106102dc57610100808354040283529160200191610307565b820191906000526020600020905b8154815290600101906020018083116102ea57829003601f168201915b5050505050908060010160009054906101000a900460ff16908060010160019054906101000a900460ff16905083565b6003602052806000526040600020600091509050806000018054600181600116156101000203166002900480601f0160208091040260200160405190810160405280929190818152602001828054600181600116156101000203166002900480156103e35780601f106103b8576101008083540402835291602001916103e3565b820191906000526020600020905b8154815290600101906020018083116103c657829003601f168201915b505050505090806001018054600181600116156101000203166002900480601f0160208091040260200160405190810160405280929190818152602001828054600181600116156101000203166002900480156104815780601f1061045657610100808354040283529160200191610481565b820191906000526020600020905b81548152906001019060200180831161046457829003601f168201915b505050505090806002018054600181600116156101000203166002900480601f01602080910402602001604051908101604052809291908181526020018280546001816001161561010002031660029004801561051f5780601f106104f45761010080835404028352916020019161051f565b820191906000526020600020905b81548152906001019060200180831161050257829003601f168201915b5050505050908060030154908060040160009054906101000a900460ff16908060040160019054906101000a900473ffffffffffffffffffffffffffffffffffffffff16905086565b600260019054906101000a900473ffffffffffffffffffffffffffffffffffffffff1681565b33600260019054906101000a900473ffffffffffffffffffffffffffffffffffffffff1673ffffffffffffffffffffffffffffffffffffffff168173ffffffffffffffffffffffffffffffffffffffff161461061f576040517f08c379a000000000000000000000000000000000000000000000000000000000815260040161061690611f84565b60405180910390fd5b60001515600560008473ffffffffffffffffffffffffffffffffffffffff1673ffffffffffffffffffffffffffffffffffffffff16815260200190815260200160002060010160009054906101000a900460ff161515146106b5576040517f08c379a00000000000000000000000000000000000000000000000000000000081526004016106ac90611f64565b60405180910390fd5b6106bd61159c565b604051806060016040528086868080601f016020809104026020016040519081016040528093929190818152602001838380828437600081840152601f19601f82011690508083019250505050505050815260200160011515815260200160001515815250905080600560008573ffffffffffffffffffffffffffffffffffffffff1673ffffffffffffffffffffffffffffffffffffffff16815260200190815260200160002060008201518160000190805190602001906107809291906115c1565b5060208201518160010160006101000a81548160ff02191690831515021790555060408201518160010160016101000a81548160ff02191690831515021790555090505060068390806001815401808255809150509060018203906000526020600020016000909192909190916101000a81548173ffffffffffffffffffffffffffffffffffffffff021916908373ffffffffffffffffffffffffffffffffffffffff160217905550505050505050565b6006818154811061083e57fe5b906000526020600020016000915054906101000a900473ffffffffffffffffffffffffffffffffffffffff1681565b33600260019054906101000a900473ffffffffffffffffffffffffffffffffffffffff1673ffffffffffffffffffffffffffffffffffffffff168173ffffffffffffffffffffffffffffffffffffffff16146108fe576040517f08c379a00000000000000000000000000000000000000000000000000000000081526004016108f590611f84565b60405180910390fd5b60011515600560008473ffffffffffffffffffffffffffffffffffffffff1673ffffffffffffffffffffffffffffffffffffffff16815260200190815260200160002060010160009054906101000a900460ff16151514610994576040517f08c379a000000000000000000000000000000000000000000000000000000000815260040161098b90611f44565b60405180910390fd5b61099c611641565b604051806040016040528085815260200160011515815250905080600760008573ffffffffffffffffffffffffffffffffffffffff1673ffffffffffffffffffffffffffffffffffffffff1681526020019081526020016000206000820151816000015560208201518160010160006101000a81548160ff02191690831515021790555090505050505050565b828233838173ffffffffffffffffffffffffffffffffffffffff168373ffffffffffffffffffffffffffffffffffffffff16148015610abb575060011515600360008673ffffffffffffffffffffffffffffffffffffffff1673ffffffffffffffffffffffffffffffffffffffff16815260200190815260200160002060040160009054906101000a900460ff161515145b8015610b1a575060011515600560008573ffffffffffffffffffffffffffffffffffffffff1673ffffffffffffffffffffffffffffffffffffffff16815260200190815260200160002060010160009054906101000a900460ff161515145b8015610b79575060001515600560008573ffffffffffffffffffffffffffffffffffffffff1673ffffffffffffffffffffffffffffffffffffffff16815260200190815260200160002060010160019054906101000a900460ff161515145b8015610c525750600560008473ffffffffffffffffffffffffffffffffffffffff1673ffffffffffffffffffffffffffffffffffffffff168152602001908152602001600020600001604051602001610bd29190611de1565b60405160208183030381529060405280519060200120600360008673ffffffffffffffffffffffffffffffffffffffff1673ffffffffffffffffffffffffffffffffffffffff168152602001908152602001600020600101604051602001610c3a9190611de1565b60405160208183030381529060405280519060200120145b8015610c9f575080600760008573ffffffffffffffffffffffffffffffffffffffff1673ffffffffffffffffffffffffffffffffffffffff16815260200190815260200160002060000154145b610cde576040517f08c379a0000000000000000000000000000000000000000000000000000000008152600401610cd590611f04565b60405180910390fd5b6001600560008873ffffffffffffffffffffffffffffffffffffffff1673ffffffffffffffffffffffffffffffffffffffff16815260200190815260200160002060010160016101000a81548160ff0219169083151502179055506001600360008973ffffffffffffffffffffffffffffffffffffffff1673ffffffffffffffffffffffffffffffffffffffff1681526020019081526020016000206003015401600360008973ffffffffffffffffffffffffffffffffffffffff1673ffffffffffffffffffffffffffffffffffffffff168152602001908152602001600020600301819055506000600760008873ffffffffffffffffffffffffffffffffffffffff1673ffffffffffffffffffffffffffffffffffffffff16815260200190815260200160002060010160006101000a81548160ff02191690831515021790555050505050505050565b33600260019054906101000a900473ffffffffffffffffffffffffffffffffffffffff1673ffffffffffffffffffffffffffffffffffffffff168173ffffffffffffffffffffffffffffffffffffffff1614610eba576040517f08c379a0000000000000000000000000000000000000000000000000000000008152600401610eb190611f84565b60405180910390fd5b60001515600360008473ffffffffffffffffffffffffffffffffffffffff1673ffffffffffffffffffffffffffffffffffffffff16815260200190815260200160002060040160009054906101000a900460ff16151514610f50576040517f08c379a0000000000000000000000000000000000000000000000000000000008152600401610f4790611f24565b60405180910390fd5b610f5861165d565b6040518060c001604052808a8a8080601f016020809104026020016040519081016040528093929190818152602001838380828437600081840152601f19601f82011690508083019250505050505050815260200188888080601f016020809104026020016040519081016040528093929190818152602001838380828437600081840152601f19601f82011690508083019250505050505050815260200186868080601f016020809104026020016040519081016040528093929190818152602001838380828437600081840152601f19601f820116905080830192505050505050508152602001600081526020016001151581526020018473ffffffffffffffffffffffffffffffffffffffff16815250905080600360008573ffffffffffffffffffffffffffffffffffffffff1673ffffffffffffffffffffffffffffffffffffffff16815260200190815260200160002060008201518160000190805190602001906110c99291906115c1565b5060208201518160010190805190602001906110e69291906115c1565b5060408201518160020190805190602001906111039291906115c1565b506060820151816003015560808201518160040160006101000a81548160ff02191690831515021790555060a08201518160040160016101000a81548173ffffffffffffffffffffffffffffffffffffffff021916908373ffffffffffffffffffffffffffffffffffffffff16021790555090505060048390806001815401808255809150509060018203906000526020600020016000909192909190916101000a81548173ffffffffffffffffffffffffffffffffffffffff021916908373ffffffffffffffffffffffffffffffffffffffff16021790555050505050505050505050565b600260009054906101000a900460ff1681565b6004818154811061120957fe5b906000526020600020016000915054906101000a900473ffffffffffffffffffffffffffffffffffffffff1681565b606060048054905060405190808252806020026020018201604052801561127957816020015b6112666116ab565b81526020019060019003908161125e5790505b50905060008090505b6004805490508110156115955760036000600483815481106112a057fe5b9060005260206000200160009054906101000a900473ffffffffffffffffffffffffffffffffffffffff1673ffffffffffffffffffffffffffffffffffffffff1673ffffffffffffffffffffffffffffffffffffffff1681526020019081526020016000206040518060c0016040529081600082018054600181600116156101000203166002900480601f0160208091040260200160405190810160405280929190818152602001828054600181600116156101000203166002900480156113a95780601f1061137e576101008083540402835291602001916113a9565b820191906000526020600020905b81548152906001019060200180831161138c57829003601f168201915b50505050508152602001600182018054600181600116156101000203166002900480601f01602080910402602001604051908101604052809291908181526020018280546001816001161561010002031660029004801561144b5780601f106114205761010080835404028352916020019161144b565b820191906000526020600020905b81548152906001019060200180831161142e57829003601f168201915b50505050508152602001600282018054600181600116156101000203166002900480601f0160208091040260200160405190810160405280929190818152602001828054600181600116156101000203166002900480156114ed5780601f106114c2576101008083540402835291602001916114ed565b820191906000526020600020905b8154815290600101906020018083116114d057829003601f168201915b50505050508152602001600382015481526020016004820160009054906101000a900460ff161515151581526020016004820160019054906101000a900473ffffffffffffffffffffffffffffffffffffffff1673ffffffffffffffffffffffffffffffffffffffff1673ffffffffffffffffffffffffffffffffffffffff168152505082828151811061157d57fe5b60200260200101819052508080600101915050611282565b5080905090565b6040518060600160405280606081526020016000151581526020016000151581525090565b828054600181600116156101000203166002900490600052602060002090601f016020900481019282601f1061160257805160ff1916838001178555611630565b82800160010185558215611630579182015b8281111561162f578251825591602001919060010190611614565b5b50905061163d91906116f9565b5090565b6040518060400160405280600081526020016000151581525090565b6040518060c0016040528060608152602001606081526020016060815260200160008152602001600015158152602001600073ffffffffffffffffffffffffffffffffffffffff1681525090565b6040518060c0016040528060608152602001606081526020016060815260200160008152602001600015158152602001600073ffffffffffffffffffffffffffffffffffffffff1681525090565b61171b91905b808211156117175760008160009055506001016116ff565b5090565b90565b60008135905061172d816120e8565b92915050565b60008083601f84011261174557600080fd5b8235905067ffffffffffffffff81111561175e57600080fd5b60208301915083600182028301111561177657600080fd5b9250929050565b60008135905061178c816120ff565b92915050565b6000602082840312156117a457600080fd5b60006117b28482850161171e565b91505092915050565b6000806000606084860312156117d057600080fd5b60006117de8682870161171e565b93505060206117ef8682870161171e565b92505060406118008682870161177d565b9150509250925092565b60008060006040848603121561181f57600080fd5b600084013567ffffffffffffffff81111561183957600080fd5b61184586828701611733565b935093505060206118588682870161171e565b9150509250925092565b60008060008060008060006080888a03121561187d57600080fd5b600088013567ffffffffffffffff81111561189757600080fd5b6118a38a828b01611733565b9750975050602088013567ffffffffffffffff8111156118c257600080fd5b6118ce8a828b01611733565b9550955050604088013567ffffffffffffffff8111156118ed57600080fd5b6118f98a828b01611733565b9350935050606061190c8a828b0161171e565b91505092959891949750929550565b60006020828403121561192d57600080fd5b600061193b8482850161177d565b91505092915050565b6000806040838503121561195757600080fd5b60006119658582860161177d565b92505060206119768582860161171e565b9150509250929050565b600061198c8383611d2c565b905092915050565b61199d8161202a565b82525050565b6119ac8161202a565b82525050565b60006119bd82611fc9565b6119c78185611fec565b9350836020820285016119d985611fa4565b8060005b85811015611a1557848403895281516119f68582611980565b9450611a0183611fdf565b925060208a019950506001810190506119dd565b50829750879550505050505092915050565b611a308161203c565b82525050565b611a3f8161203c565b82525050565b611a4e81612085565b82525050565b6000611a5f82611fd4565b611a698185611ffd565b9350611a79818560208601612097565b611a82816120ca565b840191505092915050565b6000611a9882611fd4565b611aa2818561200e565b9350611ab2818560208601612097565b611abb816120ca565b840191505092915050565b600081546001811660008114611ae35760018114611b0857611b4c565b607f6002830416611af4818761201f565b955060ff1983168652808601935050611b4c565b60028204611b16818761201f565b9550611b2185611fb4565b60005b82811015611b4357815481890152600182019150602081019050611b24565b82880195505050505b505092915050565b6000611b61600d8361200e565b91507f496e76616c696420766f746521000000000000000000000000000000000000006000830152602082019050919050565b6000611ba160318361200e565b91507f546869732063616e6469646174652077616c6c6574206164647265737320616c60008301527f72656164792072656769737465726564210000000000000000000000000000006020830152604082019050919050565b6000611c0760338361200e565b91507f546869732075736572206e6565647320746f20676f207468726f75676820726560008301527f67697374726174696f6e20746f20766f746521000000000000000000000000006020830152604082019050919050565b6000611c6d602d8361200e565b91507f5468697320766f7465722077616c6c6574206164647265737320616c7265616460008301527f79207265676973746572656421000000000000000000000000000000000000006020830152604082019050919050565b6000611cd3602e8361200e565b91507f596f757220617265206e6f7420617574686f72697a656420746f2063616c6c2060008301527f746869732066756e6374696f6e210000000000000000000000000000000000006020830152604082019050919050565b600060c0830160008301518482036000860152611d498282611a54565b91505060208301518482036020860152611d638282611a54565b91505060408301518482036040860152611d7d8282611a54565b9150506060830151611d926060860182611dc3565b506080830151611da56080860182611a27565b5060a0830151611db860a0860182611994565b508091505092915050565b611dcc8161207b565b82525050565b611ddb8161207b565b82525050565b6000611ded8284611ac6565b915081905092915050565b6000602082019050611e0d60008301846119a3565b92915050565b60006020820190508181036000830152611e2d81846119b2565b905092915050565b6000602082019050611e4a6000830184611a45565b92915050565b60006060820190508181036000830152611e6a8186611a8d565b9050611e796020830185611a36565b611e866040830184611a36565b949350505050565b600060c0820190508181036000830152611ea88189611a8d565b90508181036020830152611ebc8188611a8d565b90508181036040830152611ed08187611a8d565b9050611edf6060830186611dd2565b611eec6080830185611a36565b611ef960a08301846119a3565b979650505050505050565b60006020820190508181036000830152611f1d81611b54565b9050919050565b60006020820190508181036000830152611f3d81611b94565b9050919050565b60006020820190508181036000830152611f5d81611bfa565b9050919050565b60006020820190508181036000830152611f7d81611c60565b9050919050565b60006020820190508181036000830152611f9d81611cc6565b9050919050565b6000819050602082019050919050565b60008190508160005260206000209050919050565b600081519050919050565b600081519050919050565b6000602082019050919050565b600082825260208201905092915050565b600082825260208201905092915050565b600082825260208201905092915050565b600081905092915050565b60006120358261205b565b9050919050565b60008115159050919050565b6000819050612056826120db565b919050565b600073ffffffffffffffffffffffffffffffffffffffff82169050919050565b6000819050919050565b600061209082612048565b9050919050565b60005b838110156120b557808201518184015260208101905061209a565b838111156120c4576000848401525b50505050565b6000601f19601f8301169050919050565b600381106120e557fe5b50565b6120f18161202a565b81146120fc57600080fd5b50565b6121088161207b565b811461211357600080fd5b5056fea365627a7a723058205368d7fc6343f1573f3b05200059a1654676e5e7aead6801f7a447b30cfbe2896c6578706572696d656e74616cf564736f6c634300050a0040",
  "source": "pragma solidity ^0.5.10;\npragma experimental ABIEncoderV2;\nimport \"./WorkbenchBase.sol\";\n\ncontract Elections is WorkbenchBase(\"BallotApplication\", \"BallotApplication\") {\n\n  struct Voter {\n    string constituency;\n    bool isRegistered;\n    bool voted;\n    // address vote; //Wallet address of the person voted for\n  }\n\n  struct Candidate {\n    string name;\n    string constituency;\n    string politicalParty;\n    uint voteCount;\n    bool isRegistered;\n    address candidateAddress;\n  }\n\n  struct Otp {\n    uint value;\n    bool active;\n  }\n\n  //events\n  event VotingStarts();\n  event VotingEnds();\n\n  //state\n  enum ElectionStatus { ContractCreated, VotingStarted, VotingEnded }\n\n  //Roles and properties\n  ElectionStatus public State;\n  address public ElectionChairperson;\n  mapping (address => Candidate) public CandidateList;\n  address[] public CandidateAddressList;\n  mapping (address => Voter) public VoterList;\n  address[] public VoterAddressList;\n  mapping (address => Otp) private Otps;\n\n  constructor() public {\n    ElectionChairperson = msg.sender;\n    State = ElectionStatus.ContractCreated;\n  }\n\n  modifier isValidVote(address candidate, address voter, address msgSender, uint otp) {\n    require(\n      voter == msgSender &&\n      CandidateList[candidate].isRegistered == true &&\n      VoterList[voter].isRegistered == true &&\n      VoterList[voter].voted == false &&\n      keccak256(abi.encodePacked(CandidateList[candidate].constituency)) == keccak256(abi.encodePacked(VoterList[voter].constituency)) &&\n      Otps[voter].value == otp,\n      \"Invalid vote!\"\n    );\n    _;\n  }\n  modifier isAuthorized(address caller) {\n    require(caller == ElectionChairperson, \"Your are not authorized to call this function!\");\n    _;\n  }\n\n  function getCandidateList() public view returns (Candidate[] memory candidates) {\n    candidates = new Candidate[] (CandidateAddressList.length);\n    for(uint i = 0; i < CandidateAddressList.length; i++) {\n      candidates[i] = CandidateList[CandidateAddressList[i]];\n    }\n    return candidates;\n  }\n\n  function registerCandidate(\n    string calldata _name,\n    string calldata _constituency,\n    string calldata _politicalParty,\n    address candidateAddress\n  ) external isAuthorized(msg.sender) {\n    require(CandidateList[candidateAddress].isRegistered == false, \"This candidate wallet address already registered!\");\n    Candidate memory newCandidate = Candidate({\n      name: _name,\n      constituency: _constituency,\n      politicalParty: _politicalParty,\n      voteCount: 0,\n      isRegistered: true,\n      candidateAddress: candidateAddress\n    });\n    // Commiting this Cadidate to storage by including it in the CandidateList property\n    CandidateList[candidateAddress] = newCandidate;\n    CandidateAddressList.push(candidateAddress);\n  }\n\n  function registerVoter(\n    string calldata _constituency,\n    address voterAddress\n  ) external isAuthorized(msg.sender) {\n    require(VoterList[voterAddress].isRegistered == false, \"This voter wallet address already registered!\");\n    Voter memory newVoter = Voter({\n      constituency: _constituency,\n      voted: false,\n      // vote: address(0),\n      isRegistered: true\n    });\n    VoterList[voterAddress] = newVoter;\n    VoterAddressList.push(voterAddress);\n  }\n\n  function voteForCandidate(\n    address candidate,\n    address voter,\n    uint otp\n  ) external isValidVote(candidate, voter, msg.sender, otp) {\n    // VoterList[voter].vote = candidate;\n    VoterList[voter].voted = true;\n    CandidateList[candidate].voteCount = CandidateList[candidate].voteCount + 1;\n    Otps[voter].active = false;\n  }\n\n  function mapOTP(uint otp, address voterAddress) external isAuthorized(msg.sender) {\n    require(VoterList[voterAddress].isRegistered == true, \"This user needs to go through registration to vote!\");\n    Otp memory newOtp = Otp({\n      value: otp,\n      active: true\n    });\n    Otps[voterAddress] = newOtp;\n  }\n\n}",
  "sourcePath": "/Users/miraj/Desktop/codefundopp/contracts/Elections.sol",
  "compiler": {
    "name": "solc",
    "version": "0.5.10+commit.5a6ea5b1.Emscripten.clang"
  },
  "schemaVersion": "3.0.6",
  "updatedAt": "2019-08-21T17:41:46.924Z",
  "devdoc": {
    "methods": {}
  },
  "userdoc": {
    "methods": {}
  }
}