{
  "contractName": "Election",
  "abi": [
    {
      "constant": true,
      "inputs": [
        {
          "name": "",
          "type": "address"
        }
      ],
      "name": "VoterList",
      "outputs": [
        {
          "name": "constituency",
          "type": "string"
        },
        {
          "name": "isRegistered",
          "type": "bool"
        },
        {
          "name": "voted",
          "type": "bool"
        },
        {
          "name": "vote",
          "type": "address"
        }
      ],
      "payable": false,
      "stateMutability": "view",
      "type": "function"
    },
    {
      "constant": true,
      "inputs": [
        {
          "name": "",
          "type": "address"
        }
      ],
      "name": "CandidateList",
      "outputs": [
        {
          "name": "name",
          "type": "string"
        },
        {
          "name": "constituency",
          "type": "string"
        },
        {
          "name": "politicalParty",
          "type": "string"
        },
        {
          "name": "voteCount",
          "type": "uint256"
        },
        {
          "name": "isRegistered",
          "type": "bool"
        }
      ],
      "payable": false,
      "stateMutability": "view",
      "type": "function"
    },
    {
      "constant": true,
      "inputs": [],
      "name": "ElectionChairperson",
      "outputs": [
        {
          "name": "",
          "type": "address"
        }
      ],
      "payable": false,
      "stateMutability": "view",
      "type": "function"
    },
    {
      "constant": true,
      "inputs": [],
      "name": "State",
      "outputs": [
        {
          "name": "",
          "type": "uint8"
        }
      ],
      "payable": false,
      "stateMutability": "view",
      "type": "function"
    },
    {
      "inputs": [],
      "payable": false,
      "stateMutability": "nonpayable",
      "type": "constructor"
    },
    {
      "anonymous": false,
      "inputs": [],
      "name": "VotingStarts",
      "type": "event"
    },
    {
      "anonymous": false,
      "inputs": [],
      "name": "VotingEnds",
      "type": "event"
    },
    {
      "anonymous": false,
      "inputs": [
        {
          "indexed": false,
          "name": "applicationName",
          "type": "string"
        },
        {
          "indexed": false,
          "name": "workflowName",
          "type": "string"
        },
        {
          "indexed": false,
          "name": "originatingAddress",
          "type": "address"
        }
      ],
      "name": "WorkbenchContractCreated",
      "type": "event"
    },
    {
      "anonymous": false,
      "inputs": [
        {
          "indexed": false,
          "name": "applicationName",
          "type": "string"
        },
        {
          "indexed": false,
          "name": "workflowName",
          "type": "string"
        },
        {
          "indexed": false,
          "name": "action",
          "type": "string"
        },
        {
          "indexed": false,
          "name": "originatingAddress",
          "type": "address"
        }
      ],
      "name": "WorkbenchContractUpdated",
      "type": "event"
    },
    {
      "constant": false,
      "inputs": [
        {
          "name": "_name",
          "type": "string"
        },
        {
          "name": "_constituency",
          "type": "string"
        },
        {
          "name": "_politicalParty",
          "type": "string"
        },
        {
          "name": "candidateAddress",
          "type": "address"
        }
      ],
      "name": "registerCandidate",
      "outputs": [],
      "payable": false,
      "stateMutability": "nonpayable",
      "type": "function"
    },
    {
      "constant": false,
      "inputs": [
        {
          "name": "_constituency",
          "type": "string"
        },
        {
          "name": "voterAddress",
          "type": "address"
        }
      ],
      "name": "registerVoter",
      "outputs": [],
      "payable": false,
      "stateMutability": "nonpayable",
      "type": "function"
    },
    {
      "constant": false,
      "inputs": [
        {
          "name": "candidate",
          "type": "address"
        },
        {
          "name": "voter",
          "type": "address"
        }
      ],
      "name": "voteForCandidate",
      "outputs": [],
      "payable": false,
      "stateMutability": "nonpayable",
      "type": "function"
    }
  ],
  "bytecode": "0x60806040523480156200001157600080fd5b506040518060400160405280601181526020017f42616c6c6f744170706c69636174696f6e0000000000000000000000000000008152506040518060400160405280601181526020017f42616c6c6f744170706c69636174696f6e0000000000000000000000000000008152508160009080519060200190620000969291906200011e565b508060019080519060200190620000af9291906200011e565b50505033600260016101000a81548173ffffffffffffffffffffffffffffffffffffffff021916908373ffffffffffffffffffffffffffffffffffffffff1602179055506000600260006101000a81548160ff021916908360028111156200011357fe5b0217905550620001cd565b828054600181600116156101000203166002900490600052602060002090601f016020900481019282601f106200016157805160ff191683800117855562000192565b8280016001018555821562000192579182015b828111156200019157825182559160200191906001019062000174565b5b509050620001a19190620001a5565b5090565b620001ca91905b80821115620001c6576000816000905550600101620001ac565b5090565b90565b6113d080620001dd6000396000f3fe608060405234801561001057600080fd5b5060043610610099576000357c0100000000000000000000000000000000000000000000000000000000900480634a075de2116100785780634a075de214610395578063c6fcb2b71461042e578063e2e989b214610492578063f1b6dccd146105d557610099565b806298a51a1461009e5780630a03fff1146101a45780633a97f6691461034b575b600080fd5b6100e0600480360360208110156100b457600080fd5b81019080803573ffffffffffffffffffffffffffffffffffffffff169060200190929190505050610601565b604051808060200185151515158152602001841515151581526020018373ffffffffffffffffffffffffffffffffffffffff1673ffffffffffffffffffffffffffffffffffffffff168152602001828103825286818151815260200191508051906020019080838360005b8381101561016657808201518184015260208101905061014b565b50505050905090810190601f1680156101935780820380516001836020036101000a031916815260200191505b509550505050505060405180910390f35b6101e6600480360360208110156101ba57600080fd5b81019080803573ffffffffffffffffffffffffffffffffffffffff169060200190929190505050610703565b6040518080602001806020018060200186815260200185151515158152602001848103845289818151815260200191508051906020019080838360005b8381101561023e578082015181840152602081019050610223565b50505050905090810190601f16801561026b5780820380516001836020036101000a031916815260200191505b50848103835288818151815260200191508051906020019080838360005b838110156102a4578082015181840152602081019050610289565b50505050905090810190601f1680156102d15780820380516001836020036101000a031916815260200191505b50848103825287818151815260200191508051906020019080838360005b8381101561030a5780820151818401526020810190506102ef565b50505050905090810190601f1680156103375780820380516001836020036101000a031916815260200191505b509850505050505050505060405180910390f35b61035361090e565b604051808273ffffffffffffffffffffffffffffffffffffffff1673ffffffffffffffffffffffffffffffffffffffff16815260200191505060405180910390f35b61042c600480360360408110156103ab57600080fd5b81019080803590602001906401000000008111156103c857600080fd5b8201836020820111156103da57600080fd5b803590602001918460018302840111640100000000831117156103fc57600080fd5b9091929391929390803573ffffffffffffffffffffffffffffffffffffffff169060200190929190505050610934565b005b6104906004803603604081101561044457600080fd5b81019080803573ffffffffffffffffffffffffffffffffffffffff169060200190929190803573ffffffffffffffffffffffffffffffffffffffff169060200190929190505050610b55565b005b6105d3600480360360808110156104a857600080fd5b81019080803590602001906401000000008111156104c557600080fd5b8201836020820111156104d757600080fd5b803590602001918460018302840111640100000000831117156104f957600080fd5b90919293919293908035906020019064010000000081111561051a57600080fd5b82018360208201111561052c57600080fd5b8035906020019184600183028401116401000000008311171561054e57600080fd5b90919293919293908035906020019064010000000081111561056f57600080fd5b82018360208201111561058157600080fd5b803590602001918460018302840111640100000000831117156105a357600080fd5b9091929391929390803573ffffffffffffffffffffffffffffffffffffffff169060200190929190505050610fcb565b005b6105dd611242565b604051808260028111156105ed57fe5b60ff16815260200191505060405180910390f35b6004602052806000526040600020600091509050806000018054600181600116156101000203166002900480601f0160208091040260200160405190810160405280929190818152602001828054600181600116156101000203166002900480156106ad5780601f10610682576101008083540402835291602001916106ad565b820191906000526020600020905b81548152906001019060200180831161069057829003601f168201915b5050505050908060010160009054906101000a900460ff16908060010160019054906101000a900460ff16908060010160029054906101000a900473ffffffffffffffffffffffffffffffffffffffff16905084565b6003602052806000526040600020600091509050806000018054600181600116156101000203166002900480601f0160208091040260200160405190810160405280929190818152602001828054600181600116156101000203166002900480156107af5780601f10610784576101008083540402835291602001916107af565b820191906000526020600020905b81548152906001019060200180831161079257829003601f168201915b505050505090806001018054600181600116156101000203166002900480601f01602080910402602001604051908101604052809291908181526020018280546001816001161561010002031660029004801561084d5780601f106108225761010080835404028352916020019161084d565b820191906000526020600020905b81548152906001019060200180831161083057829003601f168201915b505050505090806002018054600181600116156101000203166002900480601f0160208091040260200160405190810160405280929190818152602001828054600181600116156101000203166002900480156108eb5780601f106108c0576101008083540402835291602001916108eb565b820191906000526020600020905b8154815290600101906020018083116108ce57829003601f168201915b5050505050908060030154908060040160009054906101000a900460ff16905085565b600260019054906101000a900473ffffffffffffffffffffffffffffffffffffffff1681565b33600260019054906101000a900473ffffffffffffffffffffffffffffffffffffffff1673ffffffffffffffffffffffffffffffffffffffff168173ffffffffffffffffffffffffffffffffffffffff16146109db576040517f08c379a000000000000000000000000000000000000000000000000000000000815260040180806020018281038252602e81526020018061136e602e913960400191505060405180910390fd5b6109e3611255565b604051806080016040528086868080601f016020809104026020016040519081016040528093929190818152602001838380828437600081840152601f19601f820116905080830192505050505050508152602001600115158152602001600015158152602001600073ffffffffffffffffffffffffffffffffffffffff16815250905080600460008573ffffffffffffffffffffffffffffffffffffffff1673ffffffffffffffffffffffffffffffffffffffff1681526020019081526020016000206000820151816000019080519060200190610ac3929190611297565b5060208201518160010160006101000a81548160ff02191690831515021790555060408201518160010160016101000a81548160ff02191690831515021790555060608201518160010160026101000a81548173ffffffffffffffffffffffffffffffffffffffff021916908373ffffffffffffffffffffffffffffffffffffffff1602179055509050505050505050565b818160011515600360008473ffffffffffffffffffffffffffffffffffffffff1673ffffffffffffffffffffffffffffffffffffffff16815260200190815260200160002060040160009054906101000a900460ff161515148015610c0d575060011515600460008373ffffffffffffffffffffffffffffffffffffffff1673ffffffffffffffffffffffffffffffffffffffff16815260200190815260200160002060010160009054906101000a900460ff161515145b8015610c6c575060001515600460008373ffffffffffffffffffffffffffffffffffffffff1673ffffffffffffffffffffffffffffffffffffffff16815260200190815260200160002060010160019054906101000a900460ff161515145b8015610deb5750600460008273ffffffffffffffffffffffffffffffffffffffff1673ffffffffffffffffffffffffffffffffffffffff1681526020019081526020016000206000016040516020018082805460018160011615610100020316600290048015610d135780601f10610cf1576101008083540402835291820191610d13565b820191906000526020600020905b815481529060010190602001808311610cff575b505091505060405160208183030381529060405280519060200120600360008473ffffffffffffffffffffffffffffffffffffffff1673ffffffffffffffffffffffffffffffffffffffff1681526020019081526020016000206001016040516020018082805460018160011615610100020316600290048015610dce5780601f10610dac576101008083540402835291820191610dce565b820191906000526020600020905b815481529060010190602001808311610dba575b505091505060405160208183030381529060405280519060200120145b610e5d576040517f08c379a000000000000000000000000000000000000000000000000000000000815260040180806020018281038252600d8152602001807f496e76616c696420766f7465210000000000000000000000000000000000000081525060200191505060405180910390fd5b83600460008573ffffffffffffffffffffffffffffffffffffffff1673ffffffffffffffffffffffffffffffffffffffff16815260200190815260200160002060010160026101000a81548173ffffffffffffffffffffffffffffffffffffffff021916908373ffffffffffffffffffffffffffffffffffffffff1602179055506001600460008573ffffffffffffffffffffffffffffffffffffffff1673ffffffffffffffffffffffffffffffffffffffff16815260200190815260200160002060010160016101000a81548160ff0219169083151502179055506001600360008673ffffffffffffffffffffffffffffffffffffffff1673ffffffffffffffffffffffffffffffffffffffff1681526020019081526020016000206003015401600360008673ffffffffffffffffffffffffffffffffffffffff1673ffffffffffffffffffffffffffffffffffffffff1681526020019081526020016000206003018190555050505050565b33600260019054906101000a900473ffffffffffffffffffffffffffffffffffffffff1673ffffffffffffffffffffffffffffffffffffffff168173ffffffffffffffffffffffffffffffffffffffff1614611072576040517f08c379a000000000000000000000000000000000000000000000000000000000815260040180806020018281038252602e81526020018061136e602e913960400191505060405180910390fd5b61107a611317565b6040518060a001604052808a8a8080601f016020809104026020016040519081016040528093929190818152602001838380828437600081840152601f19601f82011690508083019250505050505050815260200188888080601f016020809104026020016040519081016040528093929190818152602001838380828437600081840152601f19601f82011690508083019250505050505050815260200186868080601f016020809104026020016040519081016040528093929190818152602001838380828437600081840152601f19601f8201169050808301925050505050505081526020016000815260200160011515815250905080600360008573ffffffffffffffffffffffffffffffffffffffff1673ffffffffffffffffffffffffffffffffffffffff16815260200190815260200160002060008201518160000190805190602001906111cf929190611297565b5060208201518160010190805190602001906111ec929190611297565b506040820151816002019080519060200190611209929190611297565b506060820151816003015560808201518160040160006101000a81548160ff021916908315150217905550905050505050505050505050565b600260009054906101000a900460ff1681565b604051806080016040528060608152602001600015158152602001600015158152602001600073ffffffffffffffffffffffffffffffffffffffff1681525090565b828054600181600116156101000203166002900490600052602060002090601f016020900481019282601f106112d857805160ff1916838001178555611306565b82800160010185558215611306579182015b828111156113055782518255916020019190600101906112ea565b5b5090506113139190611348565b5090565b6040518060a00160405280606081526020016060815260200160608152602001600081526020016000151581525090565b61136a91905b8082111561136657600081600090555060010161134e565b5090565b9056fe596f757220617265206e6f7420617574686f72697a656420746f2063616c6c20746869732066756e6374696f6e21a265627a7a723058202657919156237ca6470268d26efed05e6c4bdeed4debe6e5da2a135345af436164736f6c634300050a0032",
  "source": "pragma solidity ^0.5.10;\nimport \"./WorkbenchBase.sol\";\n\ncontract Election is WorkbenchBase(\"BallotApplication\", \"BallotApplication\") {\n\n  struct Voter {\n    string constituency;\n    bool isRegistered;\n    bool voted;\n    address vote; //Wallet address of the person voted for\n  }\n\n  struct Candidate {\n    string name;\n    string constituency;\n    string politicalParty;\n    uint voteCount;\n    bool isRegistered;\n  }\n\n  //events\n  event VotingStarts();\n  event VotingEnds();\n\n  //state\n  enum ElectionStatus { ContractCreated, VotingStarted, VotingEnded }\n\n  //Roles and properties\n  ElectionStatus public State;\n  address public ElectionChairperson;\n  mapping (address => Candidate) public CandidateList;\n  mapping (address => Voter) public VoterList;\n\n  constructor() public {\n    ElectionChairperson = msg.sender;\n    State = ElectionStatus.ContractCreated;\n  }\n\n  modifier isValidVote(address candidate, address voter) {\n    require(\n      CandidateList[candidate].isRegistered == true &&\n      VoterList[voter].isRegistered == true &&\n      VoterList[voter].voted == false &&\n      keccak256(abi.encodePacked(CandidateList[candidate].constituency)) == keccak256(abi.encodePacked(VoterList[voter].constituency)),\n      \"Invalid vote!\"\n    );\n    _;\n  }\n  modifier isAuthorized(address caller) {\n    require(caller == ElectionChairperson, \"Your are not authorized to call this function!\");\n    _;\n  }\n\n  function registerCandidate(\n    string calldata _name,\n    string calldata _constituency,\n    string calldata _politicalParty,\n    address candidateAddress\n  ) external isAuthorized(msg.sender) {\n    Candidate memory newCandidate = Candidate({\n      name: _name,\n      constituency: _constituency,\n      politicalParty: _politicalParty,\n      voteCount: 0,\n      isRegistered: true\n    });\n    // Commiting this Cadidate to storage by including it in the CandidateList property\n    CandidateList[candidateAddress] = newCandidate;\n  }\n\n  function registerVoter(\n    string calldata _constituency,\n    address voterAddress\n  ) external isAuthorized(msg.sender) {\n    Voter memory newVoter = Voter({\n      constituency: _constituency,\n      voted: false,\n      vote: address(0),\n      isRegistered: true\n    });\n    VoterList[voterAddress] = newVoter;\n  }\n\n  function voteForCandidate(\n    address candidate,\n    address voter\n  ) external isValidVote(candidate, voter) {\n    VoterList[voter].vote = candidate;\n    VoterList[voter].voted = true;\n    CandidateList[candidate].voteCount = CandidateList[candidate].voteCount + 1;\n  }\n\n}",
  "sourcePath": "/Users/miraj/azure-blockchain-voting/contracts/Election.sol",
  "compiler": {
    "name": "solc",
    "version": "0.5.10+commit.5a6ea5b1.Emscripten.clang"
  },
  "schemaVersion": "3.0.6",
  "updatedAt": "2019-08-14T16:50:44.239Z",
  "devdoc": {
    "methods": {}
  },
  "userdoc": {
    "methods": {}
  }
}